:03000000020200F9
:0D01000075800075900075A00075B0FF229D
:1002000012010075D00075400075410075420075FF
:100210004300755000755101755263756000756734
:10022000077561407562007563017564007565004E
:1002300075660075D000120E00E5B0C394FF60F340
:10024000120D00E5B0C394FF60E9E5B0120B00E5C4
:10025000B020E703120400E5B020E603120500E534
:10026000B020E403120600E5B020E303120700E526
:10027000B020E103120800E5B0C394FF70F9120D3D
:1002800000E5B0C394FF70EF756300756400756599
:1002900000855062120A00120F00E561C3944440C9
:1002A000927550007551017552637560007567074E
:1002B000756200756301756400756500756600758B
:1002C000D000120E00E5B0C394FF60F3120D00E5FC
:1002D000B0C394FF60E9E5B0120B00E5B020E7037E
:1002E000120400E5B020E603120500E5B020E403A7
:1002F000120600E5B020E303120700E5B020E0039A
:10030000120900E5B0C394FF70F9120D00E5B0C307
:1003100094FF70EF75630075640075650085506229
:10032000120A00121000E560C394046007E56760DC
:100330003B0202BF7563FF7564707565FF120E00A6
:10034000120D00120D00120D00756300756400752A
:100350006500120E00120D00120D00120D007563E3
:10036000FF7564707565FF120E0080FE7563FF7582
:100370006480756580120E00120D00120D00120DC2
:1003800000756300756400756500120E00120D00A3
:10039000120D00120D007563FF7564807565801283
:0403A0000E0080FECD
:1004000075D000E550C394104007E550C39410F533
:02041000502278
:1005000075D000E550C394705006E5502410F550A6
:0105100022C8
:0F06000075D000E5505403C394014002155022F9
:0F07000075D000E5505403C394025002055022F7
:0A08000075D000A861A65005612222
:1009000075D00078407904E550C39670060560E61E
:10091000D2E7F608D9F11567A863A964AA657563DB
:1009200000756400756500120E00120D00120D00B6
:10093000120D007563FF7564FF7565FF120E0012DE
:100940000D00120D00120D00886389648A65120E75
:02095000002283
:100A000075D000E56254032463F8E5625470C4F9BC
:0D0A10007A016005EA23FAD9FBEA46F622D6
:100B000075D000E55054032463F8E5505470C4F9DF
:0E0B10007A016005EA23FAD9FB8A5188522245
:100D000075D000780179007A00DAFED9FAD8F62297
:0A0E00008563808564908565A0225B
:100F000075D0187840E561C39440FF600B8662128B
:090F10000A0075D01808DFF52273
:1010000075D01878407F04E630E7088662120A003F
:0710100075D01808DFF12282
:00000001FF
