:03000000020200F9
:0D01000075800075900075A00075B0FF229D
:1002000012010075D00075400075410075420075FF
:100210004300755000755101755263756000756734
:100220001475614075620075630175640075650041
:100230007566008500D0120E00E5B0C394FF60F330
:10024000E5B0120B00E5B020E703120400E5B02092
:10025000E603120500E5B020E403120600E5B02035
:10026000E303120700E5B020E103120800E5B0C384
:1002700094FF70F9756300756400756500855062C0
:0D028000120A00120F00E561C3944440A66D
:100400008500D0E550C394104007E550C39410F523
:02041000502278
:100500008500D0E550C394705006E5502410F55096
:0105100022C8
:0F0600008500D0E5505403C394014002155022E9
:0F0700008500D0E5505403C394025002055022E7
:0A0800008500D0A861A65005612212
:100900008500D075D000E55078407905C396700613
:0C0910000560E6D2E7F608D9F31567226F
:100A00008500D0E56254032463F8E5625470C4F9AC
:0D0A10007A016005EA23FAD9FBEA46F622D6
:100B00008500D0E55054032463F8E5505470C4F9CF
:0E0B10007A016005EA23FAD9FB8A5188522245
:090D000078FF79FFD9FED8FA2230
:0A0E00008563808564908565A0225B
:100F00008518D07840E561C39440FF600B8662127B
:090F10000A008518D008DFF52263
:00000001FF
