:03000000020200F9
:0D01000075800075900075A00075B0FF229D
:1002000012010075D00075400075410075420075FF
:100210004300755000755101755263756000756734
:100220001475614075620075630175640075650041
:1002300075660075D000120E00E5B0C394FF60F340
:10024000E5B0120B00E5B020E703120400E5B02092
:10025000E603120500E5B020E403120600E5B02035
:10026000E303120700E5B020E103120800E5B0C384
:1002700094FF70F9756300756400756500855062C0
:10028000120A00120F00E561C3944440A6755000A5
:10029000755101755263756000756714756200755C
:1002A000630175640075650075660075D000120EF7
:1002B00000E5B0C394FF60F3E5B0120B00E5B02099
:1002C000E703120400E5B020E603120500E5B020C4
:1002D000E403120600E5B020E303120700E5B020B6
:1002E000E003120900E5B0C394FF70F9756300756F
:1002F0006400756500855062120A00121000E56006
:10030000C394046007E56760030202AB7563FF7581
:0A03100064FF7565FF120E0080FE09
:1004000075D000E550C394104007E550C39410F533
:02041000502278
:1005000075D000E550C394705006E5502410F550A6
:0105100022C8
:0F06000075D000E5505403C394014002155022F9
:0F07000075D000E5505403C394025002055022F7
:0A08000075D000A861A65005612222
:1009000075D000E55078407904C39670060560E61E
:09091000D2E7F608D9F3156722BD
:100A000075D000E56254032463F8E5625470C4F9BC
:0D0A10007A016005EA23FAD9FBEA46F622D6
:100B000075D000E55054032463F8E5505470C4F9DF
:0E0B10007A016005EA23FAD9FB8A5188522245
:100D000075D000780479007A00DAFED9FAD8F62294
:0A0E00008563808564908565A0225B
:100F000075D0187840E561C39440FF600B8662128B
:090F10000A0075D01808DFF52273
:1010000075D01878407F04E630E7088662120A003F
:0710100075D01808DFF12282
:00000001FF
