:03000000020200F9
:0D01000075800075900075A00075B000229C
:03020000120100E8
:0F040000E550C394104007E550C39410F5502207
:0F050000E550C394705007E550C39470F5502236
:0C060000E5505403C39401400215502241
:0C070000E5505403C3940250020550223F
:07080000A880A6500580222C
:1009000075D000E55078407905C39670060560E61D
:09091000D2E7F608D9F3157022B4
:100A0000E59054032495F8E5905470C4F97A016098
:0A0A100005EA23FAD9FBEA46F622B4
:100B0000E55054032495F8E5505470C4F97A016017
:0E0B100005EA23FAD9FB8A518852120C002202
:100C0000A852E6F84551F59585958085969085978B
:070C1000A0120D00889522DF
:090D000078FF79FFD9FED8FA2230
:00000001FF
