:03000000020200F9
:0D01000075800075900075A00075B000229C
:1002000012010075D00075400075410075420075FF
:100210004300755000755101755263756000756734
:100220001475614075620075630075640075650042
:10023000756600120E00E5B060F9120B00E5B030F3
:10024000E703120400E5B030E603120500E5B03024
:10025000E403120600E5B030E303120700E5B03016
:10026000E103120800E5B070FC7563007564007569
:0F0270006500855062120A00E561C3944440B4F2
:0F040000E550C394104007E550C39410F5502207
:0E050000E550C394705006E5502410F55022CB
:0C060000E5505403C39401400215502241
:0C070000E5505403C3940250020550223F
:07080000A861A6500561226A
:1009000075D000E55078407905C39670060560E61D
:09091000D2E7F608D9F3156722BD
:100A0000E56254032463F8E5625470C4F97A016026
:0A0A100005EA23FAD9FBEA46F622B4
:100B0000E55054032463F8E5505470C4F97A016049
:0B0B100005EA23FAD9FB8A5188522223
:090D000078FF79FFD9FED8FA2230
:0A0E00008563808564908565A0225B
:00000001FF
